{
  "contractName": "Web3Renewables",
  "abi": [
    {
      "inputs": [],
      "stateMutability": "nonpayable",
      "type": "constructor"
    },
    {
      "anonymous": false,
      "inputs": [
        {
          "indexed": true,
          "internalType": "address",
          "name": "account",
          "type": "address"
        },
        {
          "indexed": true,
          "internalType": "address",
          "name": "operator",
          "type": "address"
        },
        {
          "indexed": false,
          "internalType": "bool",
          "name": "approved",
          "type": "bool"
        }
      ],
      "name": "ApprovalForAll",
      "type": "event"
    },
    {
      "anonymous": false,
      "inputs": [
        {
          "indexed": false,
          "internalType": "uint256",
          "name": "tokenId",
          "type": "uint256"
        },
        {
          "indexed": false,
          "internalType": "address",
          "name": "installer",
          "type": "address"
        }
      ],
      "name": "NewPVSystemRegistered",
      "type": "event"
    },
    {
      "anonymous": false,
      "inputs": [
        {
          "indexed": false,
          "internalType": "address",
          "name": "electrician",
          "type": "address"
        },
        {
          "indexed": false,
          "internalType": "address[]",
          "name": "admins",
          "type": "address[]"
        }
      ],
      "name": "RequestElectricianApproval",
      "type": "event"
    },
    {
      "anonymous": false,
      "inputs": [
        {
          "indexed": false,
          "internalType": "address",
          "name": "electrician",
          "type": "address"
        },
        {
          "indexed": false,
          "internalType": "address[]",
          "name": "governance",
          "type": "address[]"
        }
      ],
      "name": "RequestElectricianCredentialApproval",
      "type": "event"
    },
    {
      "anonymous": false,
      "inputs": [
        {
          "indexed": false,
          "internalType": "address",
          "name": "installer",
          "type": "address"
        },
        {
          "indexed": false,
          "internalType": "address[]",
          "name": "admins",
          "type": "address[]"
        }
      ],
      "name": "RequestInstallerApproval",
      "type": "event"
    },
    {
      "anonymous": false,
      "inputs": [
        {
          "indexed": true,
          "internalType": "bytes32",
          "name": "role",
          "type": "bytes32"
        },
        {
          "indexed": true,
          "internalType": "bytes32",
          "name": "previousAdminRole",
          "type": "bytes32"
        },
        {
          "indexed": true,
          "internalType": "bytes32",
          "name": "newAdminRole",
          "type": "bytes32"
        }
      ],
      "name": "RoleAdminChanged",
      "type": "event"
    },
    {
      "anonymous": false,
      "inputs": [
        {
          "indexed": true,
          "internalType": "bytes32",
          "name": "role",
          "type": "bytes32"
        },
        {
          "indexed": true,
          "internalType": "address",
          "name": "account",
          "type": "address"
        },
        {
          "indexed": true,
          "internalType": "address",
          "name": "sender",
          "type": "address"
        }
      ],
      "name": "RoleGranted",
      "type": "event"
    },
    {
      "anonymous": false,
      "inputs": [
        {
          "indexed": true,
          "internalType": "bytes32",
          "name": "role",
          "type": "bytes32"
        },
        {
          "indexed": true,
          "internalType": "address",
          "name": "account",
          "type": "address"
        },
        {
          "indexed": true,
          "internalType": "address",
          "name": "sender",
          "type": "address"
        }
      ],
      "name": "RoleRevoked",
      "type": "event"
    },
    {
      "anonymous": false,
      "inputs": [
        {
          "indexed": false,
          "internalType": "address",
          "name": "owner",
          "type": "address"
        },
        {
          "indexed": false,
          "internalType": "address",
          "name": "installer",
          "type": "address"
        },
        {
          "indexed": false,
          "internalType": "uint256",
          "name": "projectId",
          "type": "uint256"
        }
      ],
      "name": "SystemOwnerAdded",
      "type": "event"
    },
    {
      "anonymous": false,
      "inputs": [
        {
          "indexed": true,
          "internalType": "address",
          "name": "operator",
          "type": "address"
        },
        {
          "indexed": true,
          "internalType": "address",
          "name": "from",
          "type": "address"
        },
        {
          "indexed": true,
          "internalType": "address",
          "name": "to",
          "type": "address"
        },
        {
          "indexed": false,
          "internalType": "uint256[]",
          "name": "ids",
          "type": "uint256[]"
        },
        {
          "indexed": false,
          "internalType": "uint256[]",
          "name": "values",
          "type": "uint256[]"
        }
      ],
      "name": "TransferBatch",
      "type": "event"
    },
    {
      "anonymous": false,
      "inputs": [
        {
          "indexed": true,
          "internalType": "address",
          "name": "operator",
          "type": "address"
        },
        {
          "indexed": true,
          "internalType": "address",
          "name": "from",
          "type": "address"
        },
        {
          "indexed": true,
          "internalType": "address",
          "name": "to",
          "type": "address"
        },
        {
          "indexed": false,
          "internalType": "uint256",
          "name": "id",
          "type": "uint256"
        },
        {
          "indexed": false,
          "internalType": "uint256",
          "name": "value",
          "type": "uint256"
        }
      ],
      "name": "TransferSingle",
      "type": "event"
    },
    {
      "anonymous": false,
      "inputs": [
        {
          "indexed": false,
          "internalType": "string",
          "name": "value",
          "type": "string"
        },
        {
          "indexed": true,
          "internalType": "uint256",
          "name": "id",
          "type": "uint256"
        }
      ],
      "name": "URI",
      "type": "event"
    },
    {
      "inputs": [],
      "name": "DEFAULT_ADMIN_ROLE",
      "outputs": [
        {
          "internalType": "bytes32",
          "name": "",
          "type": "bytes32"
        }
      ],
      "stateMutability": "view",
      "type": "function",
      "constant": true
    },
    {
      "inputs": [],
      "name": "ELECTRICIAN_ROLE",
      "outputs": [
        {
          "internalType": "bytes32",
          "name": "",
          "type": "bytes32"
        }
      ],
      "stateMutability": "view",
      "type": "function",
      "constant": true
    },
    {
      "inputs": [],
      "name": "GOVERNANCE_ROLE",
      "outputs": [
        {
          "internalType": "bytes32",
          "name": "",
          "type": "bytes32"
        }
      ],
      "stateMutability": "view",
      "type": "function",
      "constant": true
    },
    {
      "inputs": [],
      "name": "INSTALLER_ROLE",
      "outputs": [
        {
          "internalType": "bytes32",
          "name": "",
          "type": "bytes32"
        }
      ],
      "stateMutability": "view",
      "type": "function",
      "constant": true
    },
    {
      "inputs": [],
      "name": "SYSTEM_OWNER_ROLE",
      "outputs": [
        {
          "internalType": "bytes32",
          "name": "",
          "type": "bytes32"
        }
      ],
      "stateMutability": "view",
      "type": "function",
      "constant": true
    },
    {
      "inputs": [
        {
          "internalType": "address",
          "name": "account",
          "type": "address"
        },
        {
          "internalType": "uint256",
          "name": "id",
          "type": "uint256"
        }
      ],
      "name": "balanceOf",
      "outputs": [
        {
          "internalType": "uint256",
          "name": "",
          "type": "uint256"
        }
      ],
      "stateMutability": "view",
      "type": "function",
      "constant": true
    },
    {
      "inputs": [
        {
          "internalType": "address[]",
          "name": "accounts",
          "type": "address[]"
        },
        {
          "internalType": "uint256[]",
          "name": "ids",
          "type": "uint256[]"
        }
      ],
      "name": "balanceOfBatch",
      "outputs": [
        {
          "internalType": "uint256[]",
          "name": "",
          "type": "uint256[]"
        }
      ],
      "stateMutability": "view",
      "type": "function",
      "constant": true
    },
    {
      "inputs": [
        {
          "internalType": "bytes32",
          "name": "role",
          "type": "bytes32"
        }
      ],
      "name": "getRoleAdmin",
      "outputs": [
        {
          "internalType": "bytes32",
          "name": "",
          "type": "bytes32"
        }
      ],
      "stateMutability": "view",
      "type": "function",
      "constant": true
    },
    {
      "inputs": [
        {
          "internalType": "bytes32",
          "name": "role",
          "type": "bytes32"
        },
        {
          "internalType": "address",
          "name": "account",
          "type": "address"
        }
      ],
      "name": "grantRole",
      "outputs": [],
      "stateMutability": "nonpayable",
      "type": "function"
    },
    {
      "inputs": [
        {
          "internalType": "bytes32",
          "name": "role",
          "type": "bytes32"
        },
        {
          "internalType": "address",
          "name": "account",
          "type": "address"
        }
      ],
      "name": "hasRole",
      "outputs": [
        {
          "internalType": "bool",
          "name": "",
          "type": "bool"
        }
      ],
      "stateMutability": "view",
      "type": "function",
      "constant": true
    },
    {
      "inputs": [
        {
          "internalType": "address",
          "name": "account",
          "type": "address"
        },
        {
          "internalType": "address",
          "name": "operator",
          "type": "address"
        }
      ],
      "name": "isApprovedForAll",
      "outputs": [
        {
          "internalType": "bool",
          "name": "",
          "type": "bool"
        }
      ],
      "stateMutability": "view",
      "type": "function",
      "constant": true
    },
    {
      "inputs": [
        {
          "internalType": "bytes32",
          "name": "role",
          "type": "bytes32"
        },
        {
          "internalType": "address",
          "name": "account",
          "type": "address"
        }
      ],
      "name": "renounceRole",
      "outputs": [],
      "stateMutability": "nonpayable",
      "type": "function"
    },
    {
      "inputs": [
        {
          "internalType": "bytes32",
          "name": "role",
          "type": "bytes32"
        },
        {
          "internalType": "address",
          "name": "account",
          "type": "address"
        }
      ],
      "name": "revokeRole",
      "outputs": [],
      "stateMutability": "nonpayable",
      "type": "function"
    },
    {
      "inputs": [
        {
          "internalType": "address",
          "name": "from",
          "type": "address"
        },
        {
          "internalType": "address",
          "name": "to",
          "type": "address"
        },
        {
          "internalType": "uint256[]",
          "name": "ids",
          "type": "uint256[]"
        },
        {
          "internalType": "uint256[]",
          "name": "amounts",
          "type": "uint256[]"
        },
        {
          "internalType": "bytes",
          "name": "data",
          "type": "bytes"
        }
      ],
      "name": "safeBatchTransferFrom",
      "outputs": [],
      "stateMutability": "nonpayable",
      "type": "function"
    },
    {
      "inputs": [
        {
          "internalType": "address",
          "name": "from",
          "type": "address"
        },
        {
          "internalType": "address",
          "name": "to",
          "type": "address"
        },
        {
          "internalType": "uint256",
          "name": "id",
          "type": "uint256"
        },
        {
          "internalType": "uint256",
          "name": "amount",
          "type": "uint256"
        },
        {
          "internalType": "bytes",
          "name": "data",
          "type": "bytes"
        }
      ],
      "name": "safeTransferFrom",
      "outputs": [],
      "stateMutability": "nonpayable",
      "type": "function"
    },
    {
      "inputs": [
        {
          "internalType": "address",
          "name": "operator",
          "type": "address"
        },
        {
          "internalType": "bool",
          "name": "approved",
          "type": "bool"
        }
      ],
      "name": "setApprovalForAll",
      "outputs": [],
      "stateMutability": "nonpayable",
      "type": "function"
    },
    {
      "inputs": [
        {
          "internalType": "uint256",
          "name": "",
          "type": "uint256"
        }
      ],
      "name": "uri",
      "outputs": [
        {
          "internalType": "string",
          "name": "",
          "type": "string"
        }
      ],
      "stateMutability": "view",
      "type": "function",
      "constant": true
    },
    {
      "inputs": [
        {
          "internalType": "string",
          "name": "streamId",
          "type": "string"
        }
      ],
      "name": "registerAsInstaller",
      "outputs": [],
      "stateMutability": "nonpayable",
      "type": "function"
    },
    {
      "inputs": [
        {
          "internalType": "string",
          "name": "streamId",
          "type": "string"
        }
      ],
      "name": "registerAsElectrician",
      "outputs": [],
      "stateMutability": "nonpayable",
      "type": "function"
    },
    {
      "inputs": [
        {
          "internalType": "string",
          "name": "streamId",
          "type": "string"
        }
      ],
      "name": "registerPVSystem",
      "outputs": [],
      "stateMutability": "nonpayable",
      "type": "function"
    },
    {
      "inputs": [
        {
          "internalType": "uint256",
          "name": "projectId",
          "type": "uint256"
        },
        {
          "internalType": "string[]",
          "name": "inverterStreamIds",
          "type": "string[]"
        }
      ],
      "name": "addInverterToPVSystem",
      "outputs": [],
      "stateMutability": "nonpayable",
      "type": "function"
    },
    {
      "inputs": [
        {
          "internalType": "uint256",
          "name": "projectId",
          "type": "uint256"
        },
        {
          "internalType": "address",
          "name": "systemOwner",
          "type": "address"
        },
        {
          "internalType": "string",
          "name": "ceramicStreamId",
          "type": "string"
        }
      ],
      "name": "addSystemOwnerToPVSystem",
      "outputs": [],
      "stateMutability": "nonpayable",
      "type": "function"
    },
    {
      "inputs": [
        {
          "internalType": "uint256",
          "name": "projectId",
          "type": "uint256"
        },
        {
          "internalType": "uint256",
          "name": "index",
          "type": "uint256"
        }
      ],
      "name": "removeInverterFromPVSystem",
      "outputs": [],
      "stateMutability": "nonpayable",
      "type": "function"
    },
    {
      "inputs": [
        {
          "internalType": "address",
          "name": "installer",
          "type": "address"
        },
        {
          "internalType": "uint256",
          "name": "projectId",
          "type": "uint256"
        }
      ],
      "name": "getPVSystem",
      "outputs": [
        {
          "internalType": "string",
          "name": "systemStreamId",
          "type": "string"
        },
        {
          "internalType": "address[]",
          "name": "electriciansInSystem",
          "type": "address[]"
        },
        {
          "internalType": "string[]",
          "name": "inverters",
          "type": "string[]"
        },
        {
          "internalType": "address",
          "name": "systemOwner",
          "type": "address"
        },
        {
          "internalType": "string",
          "name": "systemOwnerStreamId",
          "type": "string"
        }
      ],
      "stateMutability": "view",
      "type": "function",
      "constant": true
    },
    {
      "inputs": [
        {
          "internalType": "address",
          "name": "installer",
          "type": "address"
        }
      ],
      "name": "getInstallerStreamId",
      "outputs": [
        {
          "internalType": "string",
          "name": "",
          "type": "string"
        }
      ],
      "stateMutability": "view",
      "type": "function",
      "constant": true
    },
    {
      "inputs": [
        {
          "internalType": "address",
          "name": "electrician",
          "type": "address"
        }
      ],
      "name": "getElectricianStreamId",
      "outputs": [
        {
          "internalType": "string",
          "name": "",
          "type": "string"
        }
      ],
      "stateMutability": "view",
      "type": "function",
      "constant": true
    },
    {
      "inputs": [
        {
          "internalType": "bytes4",
          "name": "interfaceId",
          "type": "bytes4"
        }
      ],
      "name": "supportsInterface",
      "outputs": [
        {
          "internalType": "bool",
          "name": "",
          "type": "bool"
        }
      ],
      "stateMutability": "view",
      "type": "function",
      "constant": true
    }
  ],
  "bytecode": "0x60806040523480156200001157600080fd5b50604051806020016040528060008152506200003381620001ca60201b60201c565b5060016004819055506005339080600181540180825580915050600190039060005260206000200160009091909190916101000a81548173ffffffffffffffffffffffffffffffffffffffff021916908373ffffffffffffffffffffffffffffffffffffffff1602179055506005739cd3d45acd43b4e504c41ce2023b6408b5fa19619080600181540180825580915050600190039060005260206000200160009091909190916101000a81548173ffffffffffffffffffffffffffffffffffffffff021916908373ffffffffffffffffffffffffffffffffffffffff1602179055506200016d6000801b6005600081548110620001365762000135620003fb565b5b9060005260206000200160009054906101000a900473ffffffffffffffffffffffffffffffffffffffff16620001e660201b60201c565b620001c46000801b60056001815481106200018d576200018c620003fb565b5b9060005260206000200160009054906101000a900473ffffffffffffffffffffffffffffffffffffffff16620001e660201b60201c565b6200048e565b8060029080519060200190620001e29291906200034b565b5050565b620001f88282620002d860201b60201c565b620002d45760016003600084815260200190815260200160002060000160008373ffffffffffffffffffffffffffffffffffffffff1673ffffffffffffffffffffffffffffffffffffffff16815260200190815260200160002060006101000a81548160ff021916908315150217905550620002796200034360201b60201c565b73ffffffffffffffffffffffffffffffffffffffff168173ffffffffffffffffffffffffffffffffffffffff16837f2f8788117e7eff1d82e926ec794901d17c78024a50270940304540a733656f0d60405160405180910390a45b5050565b60006003600084815260200190815260200160002060000160008373ffffffffffffffffffffffffffffffffffffffff1673ffffffffffffffffffffffffffffffffffffffff16815260200190815260200160002060009054906101000a900460ff16905092915050565b600033905090565b828054620003599062000459565b90600052602060002090601f0160209004810192826200037d5760008555620003c9565b82601f106200039857805160ff1916838001178555620003c9565b82800160010185558215620003c9579182015b82811115620003c8578251825591602001919060010190620003ab565b5b509050620003d89190620003dc565b5090565b5b80821115620003f7576000816000905550600101620003dd565b5090565b7f4e487b7100000000000000000000000000000000000000000000000000000000600052603260045260246000fd5b7f4e487b7100000000000000000000000000000000000000000000000000000000600052602260045260246000fd5b600060028204905060018216806200047257607f821691505b6020821081036200048857620004876200042a565b5b50919050565b61545b806200049e6000396000f3fe608060405234801561001057600080fd5b50600436106101a85760003560e01c806391d14854116100f9578063d547741f11610097578063eb0376c911610071578063eb0376c9146104ed578063f242432a14610509578063f36c8f5c14610525578063ffed091914610543576101a8565b8063d547741f14610483578063d6cd151c1461049f578063e985e9c5146104bd576101a8565b8063a22cb465116100d3578063a22cb465146103fd578063a44c45eb14610419578063cb3da11c14610435578063cd2e33ec14610453576101a8565b806391d1485414610393578063a1ca06a4146103c3578063a217fddf146103df576101a8565b80632eb2c2d6116101665780634e1273f4116101405780634e1273f4146102f95780634f6376501461032957806361a528f2146103475780636b269c9914610363576101a8565b80632eb2c2d6146102a55780632f2ff15d146102c157806336568abe146102dd576101a8565b8062fdd58e146101ad57806301ffc9a7146101dd5780630d4d4e7f1461020d5780630e89341c14610229578063248a9ca31461025957806329ac6d5914610289575b600080fd5b6101c760048036038101906101c29190613532565b610577565b6040516101d49190613581565b60405180910390f35b6101f760048036038101906101f291906135f4565b61063f565b604051610204919061363c565b60405180910390f35b61022760048036038101906102229190613657565b610651565b005b610243600480360381019061023e9190613697565b61093b565b604051610250919061375d565b60405180910390f35b610273600480360381019061026e91906137b5565b6109cf565b60405161028091906137f1565b60405180910390f35b6102a3600480360381019061029e9190613941565b6109ef565b005b6102bf60048036038101906102ba9190613af3565b610b2b565b005b6102db60048036038101906102d69190613bc2565b610bcc565b005b6102f760048036038101906102f29190613bc2565b610bed565b005b610313600480360381019061030e9190613cc5565b610c70565b6040516103209190613dfb565b60405180910390f35b610331610d89565b60405161033e91906137f1565b60405180910390f35b610361600480360381019061035c9190613e1d565b610dad565b005b61037d60048036038101906103789190613e8c565b610fc2565b60405161038a919061375d565b60405180910390f35b6103ad60048036038101906103a89190613bc2565b611096565b6040516103ba919061363c565b60405180910390f35b6103dd60048036038101906103d89190613941565b611101565b005b6103e7611244565b6040516103f491906137f1565b60405180910390f35b61041760048036038101906104129190613ee5565b61124b565b005b610433600480360381019061042e9190613941565b611261565b005b61043d611613565b60405161044a91906137f1565b60405180910390f35b61046d60048036038101906104689190613e8c565b611637565b60405161047a919061375d565b60405180910390f35b61049d60048036038101906104989190613bc2565b611708565b005b6104a7611729565b6040516104b491906137f1565b60405180910390f35b6104d760048036038101906104d29190613f25565b61174d565b6040516104e4919061363c565b60405180910390f35b61050760048036038101906105029190614046565b6117e1565b005b610523600480360381019061051e91906140a2565b6119a7565b005b61052d611a48565b60405161053a91906137f1565b60405180910390f35b61055d60048036038101906105589190613532565b611a6c565b60405161056e959493929190614312565b60405180910390f35b60008073ffffffffffffffffffffffffffffffffffffffff168373ffffffffffffffffffffffffffffffffffffffff16036105e7576040517f08c379a00000000000000000000000000000000000000000000000000000000081526004016105de906143f3565b60405180910390fd5b60008083815260200190815260200160002060008473ffffffffffffffffffffffffffffffffffffffff1673ffffffffffffffffffffffffffffffffffffffff16815260200190815260200160002054905092915050565b600061064a82611ea5565b9050919050565b600260045403610696576040517f08c379a000000000000000000000000000000000000000000000000000000000815260040161068d9061445f565b60405180910390fd5b600260048190555033826000600860008473ffffffffffffffffffffffffffffffffffffffff1673ffffffffffffffffffffffffffffffffffffffff16815260200190815260200160002060008381526020019081526020016000206000018054610700906144ae565b905011610742576040517f08c379a00000000000000000000000000000000000000000000000000000000081526004016107399061452b565b60405180910390fd5b6000600860003373ffffffffffffffffffffffffffffffffffffffff1673ffffffffffffffffffffffffffffffffffffffff16815260200190815260200160002060008681526020019081526020016000206002018054905090508084106107a957600080fd5b600860003373ffffffffffffffffffffffffffffffffffffffff1673ffffffffffffffffffffffffffffffffffffffff1681526020019081526020016000206000868152602001908152602001600020600201600182610809919061457a565b8154811061081a576108196145ae565b5b90600052602060002001600860003373ffffffffffffffffffffffffffffffffffffffff1673ffffffffffffffffffffffffffffffffffffffff16815260200190815260200160002060008781526020019081526020016000206002018581548110610889576108886145ae565b5b9060005260206000200190805461089f906144ae565b6108aa92919061317b565b50600860003373ffffffffffffffffffffffffffffffffffffffff1673ffffffffffffffffffffffffffffffffffffffff168152602001908152602001600020600086815260200190815260200160002060020180548061090e5761090d6145dd565b5b60019003818190600052602060002001600061092a9190613208565b905550505060016004819055505050565b60606002805461094a906144ae565b80601f0160208091040260200160405190810160405280929190818152602001828054610976906144ae565b80156109c35780601f10610998576101008083540402835291602001916109c3565b820191906000526020600020905b8154815290600101906020018083116109a657829003601f168201915b50505050509050919050565b600060036000838152602001908152602001600020600101549050919050565b6109f833611f1f565b15610a38576040517f08c379a0000000000000000000000000000000000000000000000000000000008152600401610a2f90614658565b60405180910390fd5b610a40613248565b81816020018190525080600660003373ffffffffffffffffffffffffffffffffffffffff1673ffffffffffffffffffffffffffffffffffffffff1681526020019081526020016000206000820151816000016000820151816000015550506020820151816001019080519060200190610aba929190613268565b50905050610ae87f3f990f736de87b75759b192d523ec5b1caacfabeb25233edb383507b7f084d9b33611096565b610b27577f84ed4b496751f18b1b9b429e620b29d839a030aca2b66d1f528e1166f77a82bb336005604051610b1e929190614764565b60405180910390a15b5050565b610b33611f79565b73ffffffffffffffffffffffffffffffffffffffff168573ffffffffffffffffffffffffffffffffffffffff161480610b795750610b7885610b73611f79565b61174d565b5b610bb8576040517f08c379a0000000000000000000000000000000000000000000000000000000008152600401610baf90614806565b60405180910390fd5b610bc58585858585611f81565b5050505050565b610bd5826109cf565b610bde816122a2565b610be883836122b6565b505050565b610bf5611f79565b73ffffffffffffffffffffffffffffffffffffffff168173ffffffffffffffffffffffffffffffffffffffff1614610c62576040517f08c379a0000000000000000000000000000000000000000000000000000000008152600401610c5990614898565b60405180910390fd5b610c6c8282612397565b5050565b60608151835114610cb6576040517f08c379a0000000000000000000000000000000000000000000000000000000008152600401610cad9061492a565b60405180910390fd5b6000835167ffffffffffffffff811115610cd357610cd2613816565b5b604051908082528060200260200182016040528015610d015781602001602082028036833780820191505090505b50905060005b8451811015610d7e57610d4e858281518110610d2657610d256145ae565b5b6020026020010151858381518110610d4157610d406145ae565b5b6020026020010151610577565b828281518110610d6157610d606145ae565b5b60200260200101818152505080610d779061494a565b9050610d07565b508091505092915050565b7f3f990f736de87b75759b192d523ec5b1caacfabeb25233edb383507b7f084d9b81565b33836000600860008473ffffffffffffffffffffffffffffffffffffffff1673ffffffffffffffffffffffffffffffffffffffff16815260200190815260200160002060008381526020019081526020016000206000018054610e0f906144ae565b905011610e51576040517f08c379a0000000000000000000000000000000000000000000000000000000008152600401610e489061452b565b60405180910390fd5b610e7b7f89cb0400c70c94e944e4f761ae265ecbbb35b0c2e5324bc54cda0b66eda126d4856122b6565b7fc15f291385cfb309398958e22819f678ae08a5ce22e0985e9d22d96135ffe1a2843387604051610eae93929190614992565b60405180910390a1610ebe6132ee565b83816020018190525084816000019073ffffffffffffffffffffffffffffffffffffffff16908173ffffffffffffffffffffffffffffffffffffffff168152505080600860003373ffffffffffffffffffffffffffffffffffffffff1673ffffffffffffffffffffffffffffffffffffffff168152602001908152602001600020600088815260200190815260200160002060030160008201518160000160006101000a81548173ffffffffffffffffffffffffffffffffffffffff021916908373ffffffffffffffffffffffffffffffffffffffff1602179055506020820151816001019080519060200190610fb6929190613268565b50905050505050505050565b6060600660008373ffffffffffffffffffffffffffffffffffffffff1673ffffffffffffffffffffffffffffffffffffffff1681526020019081526020016000206001018054611011906144ae565b80601f016020809104026020016040519081016040528092919081815260200182805461103d906144ae565b801561108a5780601f1061105f5761010080835404028352916020019161108a565b820191906000526020600020905b81548152906001019060200180831161106d57829003601f168201915b50505050509050919050565b60006003600084815260200190815260200160002060000160008373ffffffffffffffffffffffffffffffffffffffff1673ffffffffffffffffffffffffffffffffffffffff16815260200190815260200160002060009054906101000a900460ff16905092915050565b61110a33612479565b1561114a576040517f08c379a000000000000000000000000000000000000000000000000000000000815260040161114190614a15565b60405180910390fd5b80600760003373ffffffffffffffffffffffffffffffffffffffff1673ffffffffffffffffffffffffffffffffffffffff168152602001908152602001600020908051906020019061119d929190613268565b506111c87f108d272361618e2a4f4ad10bc89b299551b02cc418c85898115b7a33652c820b33611096565b611207577f7706acb1009f59f3f04df00608d5db39b02c15efdeef32efa1198cfc037738503360056040516111fe929190614764565b60405180910390a15b7f94956b13886802315ab094ceb657ec908dd410b4a7d911159966332ade30a59f336005604051611239929190614764565b60405180910390a150565b6000801b81565b61125d611256611f79565b83836124d0565b5050565b6002600454036112a6576040517f08c379a000000000000000000000000000000000000000000000000000000000815260040161129d9061445f565b60405180910390fd5b60026004819055506112b733611f1f565b6112f6576040517f08c379a00000000000000000000000000000000000000000000000000000000081526004016112ed90614aa7565b60405180910390fd5b6113207f3f990f736de87b75759b192d523ec5b1caacfabeb25233edb383507b7f084d9b33611096565b61135f576040517f08c379a000000000000000000000000000000000000000000000000000000000815260040161135690614b39565b60405180910390fd5b7fffffffffffffffffffffffffffffffffffffffffffffffffffffffffffffffff6113ca600660003373ffffffffffffffffffffffffffffffffffffffff1673ffffffffffffffffffffffffffffffffffffffff16815260200190815260200160002060000161263c565b1061140a576040517f08c379a000000000000000000000000000000000000000000000000000000000815260040161140190614ba5565b60405180910390fd5b611454600660003373ffffffffffffffffffffffffffffffffffffffff1673ffffffffffffffffffffffffffffffffffffffff16815260200190815260200160002060000161264a565b60006114a0600660003373ffffffffffffffffffffffffffffffffffffffff1673ffffffffffffffffffffffffffffffffffffffff16815260200190815260200160002060000161263c565b90506114aa61331e565b82816000018190525080600860003373ffffffffffffffffffffffffffffffffffffffff1673ffffffffffffffffffffffffffffffffffffffff16815260200190815260200160002060008481526020019081526020016000206000820151816000019080519060200190611520929190613268565b50602082015181600101908051906020019061153d92919061334c565b50604082015181600201908051906020019061155a9291906133d6565b5060608201518160030160008201518160000160006101000a81548173ffffffffffffffffffffffffffffffffffffffff021916908373ffffffffffffffffffffffffffffffffffffffff16021790555060208201518160010190805190602001906115c7929190613268565b5050509050507f4d74c833983647972d9b23a8daeae908bd00e715d43a61877fe0fd857d88286382336040516115fe929190614bc5565b60405180910390a15050600160048190555050565b7f108d272361618e2a4f4ad10bc89b299551b02cc418c85898115b7a33652c820b81565b6060600760008373ffffffffffffffffffffffffffffffffffffffff1673ffffffffffffffffffffffffffffffffffffffff1681526020019081526020016000208054611683906144ae565b80601f01602080910402602001604051908101604052809291908181526020018280546116af906144ae565b80156116fc5780601f106116d1576101008083540402835291602001916116fc565b820191906000526020600020905b8154815290600101906020018083116116df57829003601f168201915b50505050509050919050565b611711826109cf565b61171a816122a2565b6117248383612397565b505050565b7f89cb0400c70c94e944e4f761ae265ecbbb35b0c2e5324bc54cda0b66eda126d481565b6000600160008473ffffffffffffffffffffffffffffffffffffffff1673ffffffffffffffffffffffffffffffffffffffff16815260200190815260200160002060008373ffffffffffffffffffffffffffffffffffffffff1673ffffffffffffffffffffffffffffffffffffffff16815260200190815260200160002060009054906101000a900460ff16905092915050565b600260045403611826576040517f08c379a000000000000000000000000000000000000000000000000000000000815260040161181d9061445f565b60405180910390fd5b600260048190555033826000600860008473ffffffffffffffffffffffffffffffffffffffff1673ffffffffffffffffffffffffffffffffffffffff16815260200190815260200160002060008381526020019081526020016000206000018054611890906144ae565b9050116118d2576040517f08c379a00000000000000000000000000000000000000000000000000000000081526004016118c99061452b565b60405180910390fd5b60005b835181101561199857600860003373ffffffffffffffffffffffffffffffffffffffff1673ffffffffffffffffffffffffffffffffffffffff1681526020019081526020016000206000868152602001908152602001600020600201848281518110611944576119436145ae565b5b6020026020010151908060018154018082558091505060019003906000526020600020016000909190919091509080519060200190611984929190613268565b5080806119909061494a565b9150506118d5565b50505060016004819055505050565b6119af611f79565b73ffffffffffffffffffffffffffffffffffffffff168573ffffffffffffffffffffffffffffffffffffffff1614806119f557506119f4856119ef611f79565b61174d565b5b611a34576040517f08c379a0000000000000000000000000000000000000000000000000000000008152600401611a2b90614806565b60405180910390fd5b611a418585858585612660565b5050505050565b7f71840dc4906352362b0cdaf79870196c8e42acafade72d5d5a6d59291253ceb181565b60608060606000606086866000600860008473ffffffffffffffffffffffffffffffffffffffff1673ffffffffffffffffffffffffffffffffffffffff16815260200190815260200160002060008381526020019081526020016000206000018054611ad7906144ae565b905011611b19576040517f08c379a0000000000000000000000000000000000000000000000000000000008152600401611b109061452b565b60405180910390fd5b6000600860008b73ffffffffffffffffffffffffffffffffffffffff1673ffffffffffffffffffffffffffffffffffffffff16815260200190815260200160002060008a8152602001908152602001600020604051806080016040529081600082018054611b86906144ae565b80601f0160208091040260200160405190810160405280929190818152602001828054611bb2906144ae565b8015611bff5780601f10611bd457610100808354040283529160200191611bff565b820191906000526020600020905b815481529060010190602001808311611be257829003601f168201915b5050505050815260200160018201805480602002602001604051908101604052809291908181526020018280548015611c8d57602002820191906000526020600020905b8160009054906101000a900473ffffffffffffffffffffffffffffffffffffffff1673ffffffffffffffffffffffffffffffffffffffff1681526020019060010190808311611c43575b5050505050815260200160028201805480602002602001604051908101604052809291908181526020016000905b82821015611d67578382906000526020600020018054611cda906144ae565b80601f0160208091040260200160405190810160405280929190818152602001828054611d06906144ae565b8015611d535780601f10611d2857610100808354040283529160200191611d53565b820191906000526020600020905b815481529060010190602001808311611d3657829003601f168201915b505050505081526020019060010190611cbb565b505050508152602001600382016040518060400160405290816000820160009054906101000a900473ffffffffffffffffffffffffffffffffffffffff1673ffffffffffffffffffffffffffffffffffffffff1673ffffffffffffffffffffffffffffffffffffffff168152602001600182018054611de5906144ae565b80601f0160208091040260200160405190810160405280929190818152602001828054611e11906144ae565b8015611e5e5780601f10611e3357610100808354040283529160200191611e5e565b820191906000526020600020905b815481529060010190602001808311611e4157829003601f168201915b505050505081525050815250509050806000015197508060200151965080604001519550806060015160000151945080606001516020015193505050509295509295909350565b60007f7965db0b000000000000000000000000000000000000000000000000000000007bffffffffffffffffffffffffffffffffffffffffffffffffffffffff1916827bffffffffffffffffffffffffffffffffffffffffffffffffffffffff19161480611f185750611f17826128fb565b5b9050919050565b600080600660008473ffffffffffffffffffffffffffffffffffffffff1673ffffffffffffffffffffffffffffffffffffffff1681526020019081526020016000206001018054611f6f906144ae565b9050119050919050565b600033905090565b8151835114611fc5576040517f08c379a0000000000000000000000000000000000000000000000000000000008152600401611fbc90614c60565b60405180910390fd5b600073ffffffffffffffffffffffffffffffffffffffff168473ffffffffffffffffffffffffffffffffffffffff1603612034576040517f08c379a000000000000000000000000000000000000000000000000000000000815260040161202b90614cf2565b60405180910390fd5b600061203e611f79565b905061204e8187878787876129dd565b60005b84518110156121ff57600085828151811061206f5761206e6145ae565b5b60200260200101519050600085838151811061208e5761208d6145ae565b5b60200260200101519050600080600084815260200190815260200160002060008b73ffffffffffffffffffffffffffffffffffffffff1673ffffffffffffffffffffffffffffffffffffffff1681526020019081526020016000205490508181101561212f576040517f08c379a000000000000000000000000000000000000000000000000000000000815260040161212690614d84565b60405180910390fd5b81810360008085815260200190815260200160002060008c73ffffffffffffffffffffffffffffffffffffffff1673ffffffffffffffffffffffffffffffffffffffff168152602001908152602001600020819055508160008085815260200190815260200160002060008b73ffffffffffffffffffffffffffffffffffffffff1673ffffffffffffffffffffffffffffffffffffffff16815260200190815260200160002060008282546121e49190614da4565b92505081905550505050806121f89061494a565b9050612051565b508473ffffffffffffffffffffffffffffffffffffffff168673ffffffffffffffffffffffffffffffffffffffff168273ffffffffffffffffffffffffffffffffffffffff167f4a39dc06d4c0dbc64b70af90fd698a233a518aa5d07e595d983b8c0526c8f7fb8787604051612276929190614dfa565b60405180910390a461228c8187878787876129e5565b61229a8187878787876129ed565b505050505050565b6122b3816122ae611f79565b612bc4565b50565b6122c08282611096565b6123935760016003600084815260200190815260200160002060000160008373ffffffffffffffffffffffffffffffffffffffff1673ffffffffffffffffffffffffffffffffffffffff16815260200190815260200160002060006101000a81548160ff021916908315150217905550612338611f79565b73ffffffffffffffffffffffffffffffffffffffff168173ffffffffffffffffffffffffffffffffffffffff16837f2f8788117e7eff1d82e926ec794901d17c78024a50270940304540a733656f0d60405160405180910390a45b5050565b6123a18282611096565b156124755760006003600084815260200190815260200160002060000160008373ffffffffffffffffffffffffffffffffffffffff1673ffffffffffffffffffffffffffffffffffffffff16815260200190815260200160002060006101000a81548160ff02191690831515021790555061241a611f79565b73ffffffffffffffffffffffffffffffffffffffff168173ffffffffffffffffffffffffffffffffffffffff16837ff6391f5c32d9c69d2a47ea670b442974b53935d1edc7fd64eb21e047a839171b60405160405180910390a45b5050565b600080600760008473ffffffffffffffffffffffffffffffffffffffff1673ffffffffffffffffffffffffffffffffffffffff16815260200190815260200160002080546124c6906144ae565b9050119050919050565b8173ffffffffffffffffffffffffffffffffffffffff168373ffffffffffffffffffffffffffffffffffffffff160361253e576040517f08c379a000000000000000000000000000000000000000000000000000000000815260040161253590614ea3565b60405180910390fd5b80600160008573ffffffffffffffffffffffffffffffffffffffff1673ffffffffffffffffffffffffffffffffffffffff16815260200190815260200160002060008473ffffffffffffffffffffffffffffffffffffffff1673ffffffffffffffffffffffffffffffffffffffff16815260200190815260200160002060006101000a81548160ff0219169083151502179055508173ffffffffffffffffffffffffffffffffffffffff168373ffffffffffffffffffffffffffffffffffffffff167f17307eab39ab6107e8899845ad3d59bd9653f200f220920489ca2b5937696c318360405161262f919061363c565b60405180910390a3505050565b600081600001549050919050565b6001816000016000828254019250508190555050565b600073ffffffffffffffffffffffffffffffffffffffff168473ffffffffffffffffffffffffffffffffffffffff16036126cf576040517f08c379a00000000000000000000000000000000000000000000000000000000081526004016126c690614cf2565b60405180910390fd5b60006126d9611f79565b905060006126e685612c61565b905060006126f385612c61565b90506127038389898585896129dd565b600080600088815260200190815260200160002060008a73ffffffffffffffffffffffffffffffffffffffff1673ffffffffffffffffffffffffffffffffffffffff1681526020019081526020016000205490508581101561279a576040517f08c379a000000000000000000000000000000000000000000000000000000000815260040161279190614d84565b60405180910390fd5b85810360008089815260200190815260200160002060008b73ffffffffffffffffffffffffffffffffffffffff1673ffffffffffffffffffffffffffffffffffffffff168152602001908152602001600020819055508560008089815260200190815260200160002060008a73ffffffffffffffffffffffffffffffffffffffff1673ffffffffffffffffffffffffffffffffffffffff168152602001908152602001600020600082825461284f9190614da4565b925050819055508773ffffffffffffffffffffffffffffffffffffffff168973ffffffffffffffffffffffffffffffffffffffff168573ffffffffffffffffffffffffffffffffffffffff167fc3d58168c5ae7397731d063d5bbf3d657854427343f4c083240f7aacaa2d0f628a8a6040516128cc929190614ec3565b60405180910390a46128e2848a8a86868a6129e5565b6128f0848a8a8a8a8a612cdb565b505050505050505050565b60007fd9b67a26000000000000000000000000000000000000000000000000000000007bffffffffffffffffffffffffffffffffffffffffffffffffffffffff1916827bffffffffffffffffffffffffffffffffffffffffffffffffffffffff191614806129c657507f0e89341c000000000000000000000000000000000000000000000000000000007bffffffffffffffffffffffffffffffffffffffffffffffffffffffff1916827bffffffffffffffffffffffffffffffffffffffffffffffffffffffff1916145b806129d657506129d582612eb2565b5b9050919050565b505050505050565b505050505050565b612a0c8473ffffffffffffffffffffffffffffffffffffffff16612f1c565b15612bbc578373ffffffffffffffffffffffffffffffffffffffff1663bc197c8187878686866040518663ffffffff1660e01b8152600401612a52959493929190614f41565b6020604051808303816000875af1925050508015612a8e57506040513d601f19601f82011682018060405250810190612a8b9190614fbe565b60015b612b3357612a9a614ff8565b806308c379a003612af65750612aae61501a565b80612ab95750612af8565b806040517f08c379a0000000000000000000000000000000000000000000000000000000008152600401612aed919061375d565b60405180910390fd5b505b6040517f08c379a0000000000000000000000000000000000000000000000000000000008152600401612b2a9061511c565b60405180910390fd5b63bc197c8160e01b7bffffffffffffffffffffffffffffffffffffffffffffffffffffffff1916817bffffffffffffffffffffffffffffffffffffffffffffffffffffffff191614612bba576040517f08c379a0000000000000000000000000000000000000000000000000000000008152600401612bb1906151ae565b60405180910390fd5b505b505050505050565b612bce8282611096565b612c5d57612bf38173ffffffffffffffffffffffffffffffffffffffff166014612f3f565b612c018360001c6020612f3f565b604051602001612c129291906152a2565b6040516020818303038152906040526040517f08c379a0000000000000000000000000000000000000000000000000000000008152600401612c54919061375d565b60405180910390fd5b5050565b60606000600167ffffffffffffffff811115612c8057612c7f613816565b5b604051908082528060200260200182016040528015612cae5781602001602082028036833780820191505090505b5090508281600081518110612cc657612cc56145ae565b5b60200260200101818152505080915050919050565b612cfa8473ffffffffffffffffffffffffffffffffffffffff16612f1c565b15612eaa578373ffffffffffffffffffffffffffffffffffffffff1663f23a6e6187878686866040518663ffffffff1660e01b8152600401612d409594939291906152dc565b6020604051808303816000875af1925050508015612d7c57506040513d601f19601f82011682018060405250810190612d799190614fbe565b60015b612e2157612d88614ff8565b806308c379a003612de45750612d9c61501a565b80612da75750612de6565b806040517f08c379a0000000000000000000000000000000000000000000000000000000008152600401612ddb919061375d565b60405180910390fd5b505b6040517f08c379a0000000000000000000000000000000000000000000000000000000008152600401612e189061511c565b60405180910390fd5b63f23a6e6160e01b7bffffffffffffffffffffffffffffffffffffffffffffffffffffffff1916817bffffffffffffffffffffffffffffffffffffffffffffffffffffffff191614612ea8576040517f08c379a0000000000000000000000000000000000000000000000000000000008152600401612e9f906151ae565b60405180910390fd5b505b505050505050565b60007f01ffc9a7000000000000000000000000000000000000000000000000000000007bffffffffffffffffffffffffffffffffffffffffffffffffffffffff1916827bffffffffffffffffffffffffffffffffffffffffffffffffffffffff1916149050919050565b6000808273ffffffffffffffffffffffffffffffffffffffff163b119050919050565b606060006002836002612f529190615336565b612f5c9190614da4565b67ffffffffffffffff811115612f7557612f74613816565b5b6040519080825280601f01601f191660200182016040528015612fa75781602001600182028036833780820191505090505b5090507f300000000000000000000000000000000000000000000000000000000000000081600081518110612fdf57612fde6145ae565b5b60200101907effffffffffffffffffffffffffffffffffffffffffffffffffffffffffffff1916908160001a9053507f780000000000000000000000000000000000000000000000000000000000000081600181518110613043576130426145ae565b5b60200101907effffffffffffffffffffffffffffffffffffffffffffffffffffffffffffff1916908160001a905350600060018460026130839190615336565b61308d9190614da4565b90505b600181111561312d577f3031323334353637383961626364656600000000000000000000000000000000600f8616601081106130cf576130ce6145ae565b5b1a60f81b8282815181106130e6576130e56145ae565b5b60200101907effffffffffffffffffffffffffffffffffffffffffffffffffffffffffffff1916908160001a905350600485901c94508061312690615390565b9050613090565b5060008414613171576040517f08c379a000000000000000000000000000000000000000000000000000000000815260040161316890615405565b60405180910390fd5b8091505092915050565b828054613187906144ae565b90600052602060002090601f0160209004810192826131a957600085556131f7565b82601f106131ba57805485556131f7565b828001600101855582156131f757600052602060002091601f016020900482015b828111156131f65782548255916001019190600101906131db565b5b5090506132049190613436565b5090565b508054613214906144ae565b6000825580601f106132265750613245565b601f0160209004906000526020600020908101906132449190613436565b5b50565b604051806040016040528061325b613453565b8152602001606081525090565b828054613274906144ae565b90600052602060002090601f01602090048101928261329657600085556132dd565b82601f106132af57805160ff19168380011785556132dd565b828001600101855582156132dd579182015b828111156132dc5782518255916020019190600101906132c1565b5b5090506132ea9190613436565b5090565b6040518060400160405280600073ffffffffffffffffffffffffffffffffffffffff168152602001606081525090565b60405180608001604052806060815260200160608152602001606081526020016133466132ee565b81525090565b8280548282559060005260206000209081019282156133c5579160200282015b828111156133c45782518260006101000a81548173ffffffffffffffffffffffffffffffffffffffff021916908373ffffffffffffffffffffffffffffffffffffffff1602179055509160200191906001019061336c565b5b5090506133d29190613436565b5090565b828054828255906000526020600020908101928215613425579160200282015b82811115613424578251829080519060200190613414929190613268565b50916020019190600101906133f6565b5b5090506134329190613466565b5090565b5b8082111561344f576000816000905550600101613437565b5090565b6040518060200160405280600081525090565b5b80821115613486576000818161347d9190613208565b50600101613467565b5090565b6000604051905090565b600080fd5b600080fd5b600073ffffffffffffffffffffffffffffffffffffffff82169050919050565b60006134c98261349e565b9050919050565b6134d9816134be565b81146134e457600080fd5b50565b6000813590506134f6816134d0565b92915050565b6000819050919050565b61350f816134fc565b811461351a57600080fd5b50565b60008135905061352c81613506565b92915050565b6000806040838503121561354957613548613494565b5b6000613557858286016134e7565b92505060206135688582860161351d565b9150509250929050565b61357b816134fc565b82525050565b60006020820190506135966000830184613572565b92915050565b60007fffffffff0000000000000000000000000000000000000000000000000000000082169050919050565b6135d18161359c565b81146135dc57600080fd5b50565b6000813590506135ee816135c8565b92915050565b60006020828403121561360a57613609613494565b5b6000613618848285016135df565b91505092915050565b60008115159050919050565b61363681613621565b82525050565b6000602082019050613651600083018461362d565b92915050565b6000806040838503121561366e5761366d613494565b5b600061367c8582860161351d565b925050602061368d8582860161351d565b9150509250929050565b6000602082840312156136ad576136ac613494565b5b60006136bb8482850161351d565b91505092915050565b600081519050919050565b600082825260208201905092915050565b60005b838110156136fe5780820151818401526020810190506136e3565b8381111561370d576000848401525b50505050565b6000601f19601f8301169050919050565b600061372f826136c4565b61373981856136cf565b93506137498185602086016136e0565b61375281613713565b840191505092915050565b600060208201905081810360008301526137778184613724565b905092915050565b6000819050919050565b6137928161377f565b811461379d57600080fd5b50565b6000813590506137af81613789565b92915050565b6000602082840312156137cb576137ca613494565b5b60006137d9848285016137a0565b91505092915050565b6137eb8161377f565b82525050565b600060208201905061380660008301846137e2565b92915050565b600080fd5b600080fd5b7f4e487b7100000000000000000000000000000000000000000000000000000000600052604160045260246000fd5b61384e82613713565b810181811067ffffffffffffffff8211171561386d5761386c613816565b5b80604052505050565b600061388061348a565b905061388c8282613845565b919050565b600067ffffffffffffffff8211156138ac576138ab613816565b5b6138b582613713565b9050602081019050919050565b82818337600083830152505050565b60006138e46138df84613891565b613876565b905082815260208101848484011115613900576138ff613811565b5b61390b8482856138c2565b509392505050565b600082601f8301126139285761392761380c565b5b81356139388482602086016138d1565b91505092915050565b60006020828403121561395757613956613494565b5b600082013567ffffffffffffffff81111561397557613974613499565b5b61398184828501613913565b91505092915050565b600067ffffffffffffffff8211156139a5576139a4613816565b5b602082029050602081019050919050565b600080fd5b60006139ce6139c98461398a565b613876565b905080838252602082019050602084028301858111156139f1576139f06139b6565b5b835b81811015613a1a5780613a06888261351d565b8452602084019350506020810190506139f3565b5050509392505050565b600082601f830112613a3957613a3861380c565b5b8135613a498482602086016139bb565b91505092915050565b600067ffffffffffffffff821115613a6d57613a6c613816565b5b613a7682613713565b9050602081019050919050565b6000613a96613a9184613a52565b613876565b905082815260208101848484011115613ab257613ab1613811565b5b613abd8482856138c2565b509392505050565b600082601f830112613ada57613ad961380c565b5b8135613aea848260208601613a83565b91505092915050565b600080600080600060a08688031215613b0f57613b0e613494565b5b6000613b1d888289016134e7565b9550506020613b2e888289016134e7565b945050604086013567ffffffffffffffff811115613b4f57613b4e613499565b5b613b5b88828901613a24565b935050606086013567ffffffffffffffff811115613b7c57613b7b613499565b5b613b8888828901613a24565b925050608086013567ffffffffffffffff811115613ba957613ba8613499565b5b613bb588828901613ac5565b9150509295509295909350565b60008060408385031215613bd957613bd8613494565b5b6000613be7858286016137a0565b9250506020613bf8858286016134e7565b9150509250929050565b600067ffffffffffffffff821115613c1d57613c1c613816565b5b602082029050602081019050919050565b6000613c41613c3c84613c02565b613876565b90508083825260208201905060208402830185811115613c6457613c636139b6565b5b835b81811015613c8d5780613c7988826134e7565b845260208401935050602081019050613c66565b5050509392505050565b600082601f830112613cac57613cab61380c565b5b8135613cbc848260208601613c2e565b91505092915050565b60008060408385031215613cdc57613cdb613494565b5b600083013567ffffffffffffffff811115613cfa57613cf9613499565b5b613d0685828601613c97565b925050602083013567ffffffffffffffff811115613d2757613d26613499565b5b613d3385828601613a24565b9150509250929050565b600081519050919050565b600082825260208201905092915050565b6000819050602082019050919050565b613d72816134fc565b82525050565b6000613d848383613d69565b60208301905092915050565b6000602082019050919050565b6000613da882613d3d565b613db28185613d48565b9350613dbd83613d59565b8060005b83811015613dee578151613dd58882613d78565b9750613de083613d90565b925050600181019050613dc1565b5085935050505092915050565b60006020820190508181036000830152613e158184613d9d565b905092915050565b600080600060608486031215613e3657613e35613494565b5b6000613e448682870161351d565b9350506020613e55868287016134e7565b925050604084013567ffffffffffffffff811115613e7657613e75613499565b5b613e8286828701613913565b9150509250925092565b600060208284031215613ea257613ea1613494565b5b6000613eb0848285016134e7565b91505092915050565b613ec281613621565b8114613ecd57600080fd5b50565b600081359050613edf81613eb9565b92915050565b60008060408385031215613efc57613efb613494565b5b6000613f0a858286016134e7565b9250506020613f1b85828601613ed0565b9150509250929050565b60008060408385031215613f3c57613f3b613494565b5b6000613f4a858286016134e7565b9250506020613f5b858286016134e7565b9150509250929050565b600067ffffffffffffffff821115613f8057613f7f613816565b5b602082029050602081019050919050565b6000613fa4613f9f84613f65565b613876565b90508083825260208201905060208402830185811115613fc757613fc66139b6565b5b835b8181101561400e57803567ffffffffffffffff811115613fec57613feb61380c565b5b808601613ff98982613913565b85526020850194505050602081019050613fc9565b5050509392505050565b600082601f83011261402d5761402c61380c565b5b813561403d848260208601613f91565b91505092915050565b6000806040838503121561405d5761405c613494565b5b600061406b8582860161351d565b925050602083013567ffffffffffffffff81111561408c5761408b613499565b5b61409885828601614018565b9150509250929050565b600080600080600060a086880312156140be576140bd613494565b5b60006140cc888289016134e7565b95505060206140dd888289016134e7565b94505060406140ee8882890161351d565b93505060606140ff8882890161351d565b925050608086013567ffffffffffffffff8111156141205761411f613499565b5b61412c88828901613ac5565b9150509295509295909350565b600081519050919050565b600082825260208201905092915050565b6000819050602082019050919050565b61416e816134be565b82525050565b60006141808383614165565b60208301905092915050565b6000602082019050919050565b60006141a482614139565b6141ae8185614144565b93506141b983614155565b8060005b838110156141ea5781516141d18882614174565b97506141dc8361418c565b9250506001810190506141bd565b5085935050505092915050565b600081519050919050565b600082825260208201905092915050565b6000819050602082019050919050565b600082825260208201905092915050565b600061423f826136c4565b6142498185614223565b93506142598185602086016136e0565b61426281613713565b840191505092915050565b60006142798383614234565b905092915050565b6000602082019050919050565b6000614299826141f7565b6142a38185614202565b9350836020820285016142b585614213565b8060005b858110156142f157848403895281516142d2858261426d565b94506142dd83614281565b925060208a019950506001810190506142b9565b50829750879550505050505092915050565b61430c816134be565b82525050565b600060a082019050818103600083015261432c8188613724565b905081810360208301526143408187614199565b90508181036040830152614354818661428e565b90506143636060830185614303565b81810360808301526143758184613724565b90509695505050505050565b7f455243313135353a2061646472657373207a65726f206973206e6f742061207660008201527f616c6964206f776e657200000000000000000000000000000000000000000000602082015250565b60006143dd602a836136cf565b91506143e882614381565b604082019050919050565b6000602082019050818103600083015261440c816143d0565b9050919050565b7f5265656e7472616e637947756172643a207265656e7472616e742063616c6c00600082015250565b6000614449601f836136cf565b915061445482614413565b602082019050919050565b600060208201905081810360008301526144788161443c565b9050919050565b7f4e487b7100000000000000000000000000000000000000000000000000000000600052602260045260246000fd5b600060028204905060018216806144c657607f821691505b6020821081036144d9576144d861447f565b5b50919050565b7f546869732050562053797374656d20646f6573206e6f74206578697374000000600082015250565b6000614515601d836136cf565b9150614520826144df565b602082019050919050565b6000602082019050818103600083015261454481614508565b9050919050565b7f4e487b7100000000000000000000000000000000000000000000000000000000600052601160045260246000fd5b6000614585826134fc565b9150614590836134fc565b9250828210156145a3576145a261454b565b5b828203905092915050565b7f4e487b7100000000000000000000000000000000000000000000000000000000600052603260045260246000fd5b7f4e487b7100000000000000000000000000000000000000000000000000000000600052603160045260246000fd5b7f416c72656164792061207265676973746572656420696e7374616c6c65720000600082015250565b6000614642601e836136cf565b915061464d8261460c565b602082019050919050565b6000602082019050818103600083015261467181614635565b9050919050565b600081549050919050565b60008190508160005260206000209050919050565b60008160001c9050919050565b600073ffffffffffffffffffffffffffffffffffffffff82169050919050565b60006146d86146d383614698565b6146a5565b9050919050565b60006146eb82546146c5565b9050919050565b6000600182019050919050565b600061470a82614678565b6147148185614144565b935061471f83614683565b8060005b8381101561475757614734826146df565b61473e8882614174565b9750614749836146f2565b925050600181019050614723565b5085935050505092915050565b60006040820190506147796000830185614303565b818103602083015261478b81846146ff565b90509392505050565b7f455243313135353a2063616c6c6572206973206e6f7420746f6b656e206f776e60008201527f6572206e6f7220617070726f7665640000000000000000000000000000000000602082015250565b60006147f0602f836136cf565b91506147fb82614794565b604082019050919050565b6000602082019050818103600083015261481f816147e3565b9050919050565b7f416363657373436f6e74726f6c3a2063616e206f6e6c792072656e6f756e636560008201527f20726f6c657320666f722073656c660000000000000000000000000000000000602082015250565b6000614882602f836136cf565b915061488d82614826565b604082019050919050565b600060208201905081810360008301526148b181614875565b9050919050565b7f455243313135353a206163636f756e747320616e6420696473206c656e67746860008201527f206d69736d617463680000000000000000000000000000000000000000000000602082015250565b60006149146029836136cf565b915061491f826148b8565b604082019050919050565b6000602082019050818103600083015261494381614907565b9050919050565b6000614955826134fc565b91507fffffffffffffffffffffffffffffffffffffffffffffffffffffffffffffffff82036149875761498661454b565b5b600182019050919050565b60006060820190506149a76000830186614303565b6149b46020830185614303565b6149c16040830184613572565b949350505050565b7f416c72656164792061207265676973746572656420656c65637472696369616e600082015250565b60006149ff6020836136cf565b9150614a0a826149c9565b602082019050919050565b60006020820190508181036000830152614a2e816149f2565b9050919050565b7f596f7520617265206e6f742061207265676973746572656420696e7374616c6c60008201527f6572000000000000000000000000000000000000000000000000000000000000602082015250565b6000614a916022836136cf565b9150614a9c82614a35565b604082019050919050565b60006020820190508181036000830152614ac081614a84565b9050919050565b7f596f7520646f206e6f742068617665207468652072657175697265642070657260008201527f6d697373696f6e73000000000000000000000000000000000000000000000000602082015250565b6000614b236028836136cf565b9150614b2e82614ac7565b604082019050919050565b60006020820190508181036000830152614b5281614b16565b9050919050565b7f526561636865642050726f6a656374206c696d69742e00000000000000000000600082015250565b6000614b8f6016836136cf565b9150614b9a82614b59565b602082019050919050565b60006020820190508181036000830152614bbe81614b82565b9050919050565b6000604082019050614bda6000830185613572565b614be76020830184614303565b9392505050565b7f455243313135353a2069647320616e6420616d6f756e7473206c656e6774682060008201527f6d69736d61746368000000000000000000000000000000000000000000000000602082015250565b6000614c4a6028836136cf565b9150614c5582614bee565b604082019050919050565b60006020820190508181036000830152614c7981614c3d565b9050919050565b7f455243313135353a207472616e7366657220746f20746865207a65726f20616460008201527f6472657373000000000000000000000000000000000000000000000000000000602082015250565b6000614cdc6025836136cf565b9150614ce782614c80565b604082019050919050565b60006020820190508181036000830152614d0b81614ccf565b9050919050565b7f455243313135353a20696e73756666696369656e742062616c616e636520666f60008201527f72207472616e7366657200000000000000000000000000000000000000000000602082015250565b6000614d6e602a836136cf565b9150614d7982614d12565b604082019050919050565b60006020820190508181036000830152614d9d81614d61565b9050919050565b6000614daf826134fc565b9150614dba836134fc565b9250827fffffffffffffffffffffffffffffffffffffffffffffffffffffffffffffffff03821115614def57614dee61454b565b5b828201905092915050565b60006040820190508181036000830152614e148185613d9d565b90508181036020830152614e288184613d9d565b90509392505050565b7f455243313135353a2073657474696e6720617070726f76616c2073746174757360008201527f20666f722073656c660000000000000000000000000000000000000000000000602082015250565b6000614e8d6029836136cf565b9150614e9882614e31565b604082019050919050565b60006020820190508181036000830152614ebc81614e80565b9050919050565b6000604082019050614ed86000830185613572565b614ee56020830184613572565b9392505050565b600081519050919050565b600082825260208201905092915050565b6000614f1382614eec565b614f1d8185614ef7565b9350614f2d8185602086016136e0565b614f3681613713565b840191505092915050565b600060a082019050614f566000830188614303565b614f636020830187614303565b8181036040830152614f758186613d9d565b90508181036060830152614f898185613d9d565b90508181036080830152614f9d8184614f08565b90509695505050505050565b600081519050614fb8816135c8565b92915050565b600060208284031215614fd457614fd3613494565b5b6000614fe284828501614fa9565b91505092915050565b60008160e01c9050919050565b600060033d11156150175760046000803e615014600051614feb565b90505b90565b600060443d106150a75761502c61348a565b60043d036004823e80513d602482011167ffffffffffffffff821117156150545750506150a7565b808201805167ffffffffffffffff81111561507257505050506150a7565b80602083010160043d03850181111561508f5750505050506150a7565b61509e82602001850186613845565b82955050505050505b90565b7f455243313135353a207472616e7366657220746f206e6f6e204552433131353560008201527f526563656976657220696d706c656d656e746572000000000000000000000000602082015250565b60006151066034836136cf565b9150615111826150aa565b604082019050919050565b60006020820190508181036000830152615135816150f9565b9050919050565b7f455243313135353a204552433131353552656365697665722072656a6563746560008201527f6420746f6b656e73000000000000000000000000000000000000000000000000602082015250565b60006151986028836136cf565b91506151a38261513c565b604082019050919050565b600060208201905081810360008301526151c78161518b565b9050919050565b600081905092915050565b7f416363657373436f6e74726f6c3a206163636f756e7420000000000000000000600082015250565b600061520f6017836151ce565b915061521a826151d9565b601782019050919050565b6000615230826136c4565b61523a81856151ce565b935061524a8185602086016136e0565b80840191505092915050565b7f206973206d697373696e6720726f6c6520000000000000000000000000000000600082015250565b600061528c6011836151ce565b915061529782615256565b601182019050919050565b60006152ad82615202565b91506152b98285615225565b91506152c48261527f565b91506152d08284615225565b91508190509392505050565b600060a0820190506152f16000830188614303565b6152fe6020830187614303565b61530b6040830186613572565b6153186060830185613572565b818103608083015261532a8184614f08565b90509695505050505050565b6000615341826134fc565b915061534c836134fc565b9250817fffffffffffffffffffffffffffffffffffffffffffffffffffffffffffffffff04831182151516156153855761538461454b565b5b828202905092915050565b600061539b826134fc565b9150600082036153ae576153ad61454b565b5b600182039050919050565b7f537472696e67733a20686578206c656e67746820696e73756666696369656e74600082015250565b60006153ef6020836136cf565b91506153fa826153b9565b602082019050919050565b6000602082019050818103600083015261541e816153e2565b905091905056fea2646970667358221220b91e6aac7130783a28976d80278dd16fa0cbda28e9068af545dbddee2a7180a864736f6c634300080e0033",
  "immutableReferences": {},
  "source": "// SPDX-License-Identifier: MIT\npragma solidity ^0.8.14;\n\nimport \"@openzeppelin/contracts/token/ERC1155/ERC1155.sol\";\nimport \"@openzeppelin/contracts/access/AccessControl.sol\";\nimport \"@openzeppelin/contracts/utils/math/SafeMath.sol\";\nimport \"@openzeppelin/contracts/utils/Counters.sol\";\nimport \"@openzeppelin/contracts/security/ReentrancyGuard.sol\";\n\ncontract Web3Renewables is ERC1155, AccessControl, ReentrancyGuard {\n    bytes32 public constant INSTALLER_ROLE = keccak256(\"INSTALLER_ROLE\");\n    bytes32 public constant ELECTRICIAN_ROLE = keccak256(\"ELECTRICIAN_ROLE\");\n    bytes32 public constant SYSTEM_OWNER_ROLE = keccak256(\"SYSTEM_OWNER_ROLE\");\n    bytes32 public constant GOVERNANCE_ROLE = keccak256(\"GOVERNANCE_ROLE\");\n\n    uint256 private constant MAX_INT = 0xffffffffffffffffffffffffffffffffffffffffffffffffffffffffffffffff;\n    address[] private adminAddresses;\n\n    using SafeMath for uint256;\n    using Counters for Counters.Counter; \n\n    mapping(address => InstallerMetadata) private installers;\n    mapping(address => string) private electricians;\n    mapping(address => mapping(uint256 => PVSystem)) private systems;\n\n    struct InstallerMetadata {\n        Counters.Counter projectCount;\n        string ceramicStreamId;\n    }\n\n    struct PVSystem {\n        string ceramicStreamId;\n        address[] electricians;\n        string[] inverters;\n        SystemOwner owner;\n    }\n\n    struct SystemOwner {\n        address wallet;\n        string ceramicStreamId;\n    }\n\n    event NewPVSystemRegistered(uint256 tokenId, address installer);\n    event RequestInstallerApproval(address installer, address[] admins);\n    event RequestElectricianApproval(address electrician, address[] admins);\n    event RequestElectricianCredentialApproval(address electrician, address[] governance);\n    event SystemOwnerAdded(address owner, address installer, uint256 projectId);\n\n    modifier notRegisteredInstaller() {\n       require(!isInInstallerMapping(msg.sender), \"Already a registered installer\");\n        _;\n    }\n\n    modifier notRegisteredElectrician() {\n        require(!isInElectricianMapping(msg.sender), \"Already a registered electrician\");\n        _;\n    }\n\n    modifier registeredElectrician() {\n        require(isInElectricianMapping(msg.sender), \"You are not a registered electrician\");\n        _;\n    }\n\n    modifier registeredInstaller() {\n       require(isInInstallerMapping(msg.sender), \"You are not a registered installer\");\n        _;\n    }\n\n    modifier isApprovedInstaller() {\n       require(hasRole(INSTALLER_ROLE, msg.sender), \"You do not have the required permissions\");\n        _;\n    }\n\n    modifier pvSystemExists(address installer, uint256 projectId) {\n        require(bytes(systems[installer][projectId].ceramicStreamId).length > 0, \"This PV System does not exist\");\n        _;\n    }\n\n    constructor() ERC1155(\"\") {\n        // My Address\n        adminAddresses.push(msg.sender);\n        adminAddresses.push(0x9Cd3d45ACd43b4e504c41Ce2023b6408b5Fa1961);\n\n        _grantRole(DEFAULT_ADMIN_ROLE, adminAddresses[0]);\n        _grantRole(DEFAULT_ADMIN_ROLE, adminAddresses[1]);\n    }\n\n    function registerAsInstaller(string memory streamId)\n        notRegisteredInstaller\n        external\n    {\n        InstallerMetadata memory metadata;\n        metadata.ceramicStreamId = streamId;\n        installers[msg.sender] = metadata;\n\n        if(!hasRole(INSTALLER_ROLE, msg.sender)) {\n            emit RequestInstallerApproval(msg.sender, adminAddresses);\n        }\n\n    }\n\n    function registerAsElectrician(string memory streamId)\n        external\n        notRegisteredElectrician\n    {\n        electricians[msg.sender] = streamId;\n\n        if(!hasRole(ELECTRICIAN_ROLE, msg.sender)) {\n            emit RequestElectricianApproval(msg.sender, adminAddresses);\n        }\n        emit RequestElectricianCredentialApproval(msg.sender, adminAddresses);\n    }\n\n    function registerPVSystem(string memory streamId)\n        external\n        nonReentrant\n        registeredInstaller\n        isApprovedInstaller\n    {\n        require(installers[msg.sender].projectCount.current() < MAX_INT, \"Reached Project limit.\");\n\n        // Get a new project id\n        installers[msg.sender].projectCount.increment();\n        uint256 projectId = installers[msg.sender].projectCount.current();\n\n        // Create initial 'project' object\n        PVSystem memory system;\n        system.ceramicStreamId = streamId;\n\n        systems[msg.sender][projectId] = system;\n        emit NewPVSystemRegistered(projectId, msg.sender);\n    }\n\n    function addInverterToPVSystem(uint256 projectId, string[] memory inverterStreamIds)\n        external\n        nonReentrant\n        pvSystemExists(msg.sender, projectId)\n    {\n        for(uint256 i = 0; i < inverterStreamIds.length; i++) {\n            systems[msg.sender][projectId].inverters.push(inverterStreamIds[i]);\n        }\n        \n    }\n\n    function addSystemOwnerToPVSystem(uint256 projectId, address systemOwner, string memory ceramicStreamId)\n        external\n        pvSystemExists(msg.sender, projectId)\n    {\n        _grantRole(SYSTEM_OWNER_ROLE, systemOwner);\n        emit SystemOwnerAdded(systemOwner, msg.sender, projectId);\n\n        SystemOwner memory owner;\n        owner.ceramicStreamId = ceramicStreamId;\n        owner.wallet = systemOwner;\n\n        systems[msg.sender][projectId].owner = owner;\n    }\n\n    function removeInverterFromPVSystem(uint256 projectId, uint256 index)\n        external\n        nonReentrant\n        pvSystemExists(msg.sender, projectId)\n    {\n        // Get the total number of inverters\n        uint256 inverterLength = systems[msg.sender][projectId].inverters.length;\n\n        //Require the removed inverter index be in bounds\n        require(index < inverterLength);\n\n        // Set the inverter to be removed position to the last element in the list\n        // Essentially overwrites the data with the last element\n        systems[msg.sender][projectId].inverters[index] = systems[msg.sender][projectId].inverters[inverterLength-1];\n\n        //Removes the last element to delete the now duplicate\n        systems[msg.sender][projectId].inverters.pop();\n    }\n\n\n    function getPVSystem(address installer, uint256 projectId)\n        external\n        view\n        pvSystemExists(installer, projectId)\n        returns(string memory systemStreamId, address[] memory electriciansInSystem, string[] memory inverters, address systemOwner, string memory systemOwnerStreamId)\n    {\n        PVSystem memory system = systems[installer][projectId];\n        \n        systemStreamId = system.ceramicStreamId;\n        electriciansInSystem = system.electricians;\n        inverters = system.inverters;\n        systemOwner = system.owner.wallet;\n        systemOwnerStreamId = system.owner.ceramicStreamId;\n    }\n\n    function getInstallerStreamId(address installer)\n        external\n        view\n        returns (string memory)\n    {\n        return installers[installer].ceramicStreamId;\n    }\n\n    function getElectricianStreamId(address electrician)\n        external\n        view\n        returns (string memory)\n    {\n        return electricians[electrician];\n    }\n\n    function isInInstallerMapping(address account)\n        internal\n        view\n        returns (bool)\n    {\n        return bytes(installers[account].ceramicStreamId).length > 0;\n    }\n\n    function isInElectricianMapping(address account)\n        internal\n        view\n        returns (bool)\n    {\n        return bytes(electricians[account]).length > 0;\n    }\n\n    // The following functions are overrides required by Solidity.\n\n    function supportsInterface(bytes4 interfaceId)\n        public\n        view\n        override(ERC1155, AccessControl)\n        returns (bool)\n    {\n        return super.supportsInterface(interfaceId);\n    }\n}\n",
  "sourcePath": "/Users/bcowell/Code/web3-renewables/truffle/contracts/Web3Renewables.sol",
  "compiler": {
    "name": "solc",
    "version": "0.8.14+commit.80d49f37.Emscripten.clang"
  },
  "schemaVersion": "3.4.8",
  "updatedAt": "2022-07-12T13:47:36.057Z",
  "networkType": "ethereum",
  "devdoc": {
    "kind": "dev",
    "methods": {
      "balanceOf(address,uint256)": {
        "details": "See {IERC1155-balanceOf}. Requirements: - `account` cannot be the zero address."
      },
      "balanceOfBatch(address[],uint256[])": {
        "details": "See {IERC1155-balanceOfBatch}. Requirements: - `accounts` and `ids` must have the same length."
      },
      "getRoleAdmin(bytes32)": {
        "details": "Returns the admin role that controls `role`. See {grantRole} and {revokeRole}. To change a role's admin, use {_setRoleAdmin}."
      },
      "grantRole(bytes32,address)": {
        "details": "Grants `role` to `account`. If `account` had not been already granted `role`, emits a {RoleGranted} event. Requirements: - the caller must have ``role``'s admin role. May emit a {RoleGranted} event."
      },
      "hasRole(bytes32,address)": {
        "details": "Returns `true` if `account` has been granted `role`."
      },
      "isApprovedForAll(address,address)": {
        "details": "See {IERC1155-isApprovedForAll}."
      },
      "renounceRole(bytes32,address)": {
        "details": "Revokes `role` from the calling account. Roles are often managed via {grantRole} and {revokeRole}: this function's purpose is to provide a mechanism for accounts to lose their privileges if they are compromised (such as when a trusted device is misplaced). If the calling account had been revoked `role`, emits a {RoleRevoked} event. Requirements: - the caller must be `account`. May emit a {RoleRevoked} event."
      },
      "revokeRole(bytes32,address)": {
        "details": "Revokes `role` from `account`. If `account` had been granted `role`, emits a {RoleRevoked} event. Requirements: - the caller must have ``role``'s admin role. May emit a {RoleRevoked} event."
      },
      "safeBatchTransferFrom(address,address,uint256[],uint256[],bytes)": {
        "details": "See {IERC1155-safeBatchTransferFrom}."
      },
      "safeTransferFrom(address,address,uint256,uint256,bytes)": {
        "details": "See {IERC1155-safeTransferFrom}."
      },
      "setApprovalForAll(address,bool)": {
        "details": "See {IERC1155-setApprovalForAll}."
      },
      "uri(uint256)": {
        "details": "See {IERC1155MetadataURI-uri}. This implementation returns the same URI for *all* token types. It relies on the token type ID substitution mechanism https://eips.ethereum.org/EIPS/eip-1155#metadata[defined in the EIP]. Clients calling this function must replace the `\\{id\\}` substring with the actual token type ID."
      }
    },
    "version": 1
  },
  "userdoc": {
    "kind": "user",
    "methods": {},
    "version": 1
  }
}